:100000000C942A000C9447000C9447000C94470071
:100010000C9447000C9447000C9447000C94470044
:100020000C9447000C9447000C9447000C94470034
:100030000C9447000C9447000C9447000C94470024
:100040000C9447000C9447000C9447000C94470014
:100050000C94470011241FBECFE5D8E0DEBFCDBF12
:1000600010E0A0E6B0E0E0E1F1E102C005900D9201
:10007000AE36B107D9F710E0AEE6B0E001C01D9290
:10008000AE36B107E1F70E9429020C9486080C9461
:1000900000002F923F925F926F927F928F929F9279
:1000A000AF92BF92CF92DF92EF92FF920F931F9386
:1000B000DF93CF9300D000D0CDB7DEB75B016C01EA
:1000C00060E070E080E89FE30E94160520E030E0E9
:1000D0004AE754E40E941904F62E072F182FE92E40
:1000E000C601B5012F2D302F412F5E2D0E94160520
:1000F0000E94550669837A838B839C836F2D702FB2
:10010000812F9E2D20E030E040E05FE30E94190443
:10011000962E872E782E692EA79AAA24BB246501D5
:1001200089E1282E312C84C0A4019301652F782DFC
:10013000832F962D20E030E04AE753E40E94190413
:100140007B018C01552453947F2D912F20E030E0CA
:1001500040E85FE30E94250687FD2CC055246E2DE4
:100160007F2D802F912F20E03FEF4FE757E40E9433
:10017000C5051816C4F4A4019301652F782D832FAB
:10018000962D20E030E040E251E40E9419040E94E4
:10019000430205C0C1010197F1F76150704061153C
:1001A0007105C1F70CC06E2D7F2D802F912F0E94FD
:1001B000430202C061E070E0CB010197F1F7AF9A12
:1001C000552059F56E2D7F2D802F912F20E03FEF88
:1001D0004FE757E40E94C5051816C4F4A401930123
:1001E000652F782D832F962D20E030E040E251E4FA
:1001F0000E9419040E94430205C0C1010197F1F752
:100200006150704061157105C1F70CC06E2D7F2DD6
:10021000802F912F0E94430202C061E070E0CB0169
:100220000197F1F7AF980894A11CB11CC11CD11C17
:1002300089819A81AB81BC81A816B906CA06DB0602
:100240000CF472CF0F900F900F900F90CF91DF9121
:100250001F910F91FF90EF90DF90CF90BF90AF90E4
:100260009F908F907F906F905F903F902F90089518
:1002700080E487B987E886B9089597B18770892B9C
:1002800087B9369A349BFECF349A24B135B1C9016F
:100290000895DF93CF9300D000D000D0CDB7DEB764
:1002A000B90182EA97E10E943B08CB0126960FB67E
:1002B000F894DEBF0FBECDBFCF91DF9108959C01B2
:1002C0000A978530910548F460E070E080E291E49F
:1002D00020E030E048EC52E4A9C0C9010F97853016
:1002E000910548F460E070E080E291E420E030E0C5
:1002F00048E453E49BC0C90144978530910548F414
:1003000060E070E080E291E420E030E046E953E410
:100310008DC0C90149978530910548F460E070E0CF
:1003200080E291E420E030E048EC53E47FC0C90172
:100330004E978530910548F460E070E080E291E4EA
:1003400020E030E04AEF53E471C0C9018397853063
:10035000910548F460E070E080E291E420E030E054
:1003600046E154E463C0C90188978530910548F49B
:1003700060E070E080E291E420E030E04FE254E49D
:1003800055C0C9018D978530910548F460E070E053
:1003900080E291E420E030E048E454E447C0C90141
:1003A000C2978530910548F460E070E080E291E406
:1003B00020E030E041E654E439C0C901C7978530F8
:1003C000910548F460E070E080E291E420E030E0E4
:1003D0004AE754E42BC0C901CC978530910548F415
:1003E00060E070E080E291E420E030E849E854E425
:1003F0001DC0C901815490408530910548F460E0EA
:1004000070E080E291E420E030E046E954E40EC080
:10041000C901865490408530910558F460E070E041
:1004200080E291E420E030E842EA54E40E9449008E
:1004300008952B5430402530310550F460E070E0D1
:1004400080E291E420E030E04FEA54E40E94490069
:1004500008950F931F93CF93DF938FEF87BB0E9475
:100460003801C2EAD7E104EC19E080E00E943D01C6
:10047000BC01CE010E943B08CB010E945F01C80174
:100480000197F1F7F2CFEF92FF920F931F937B0149
:100490008C0120E030E040E05FE40E94F50587FD3C
:1004A00011C0C801B70120E030E040E05FE40E94E5
:1004B000E8030E9455069B01AC01205030404040AB
:1004C000504806C0C801B7010E9455069B01AC0107
:1004D000B901CA011F910F91FF90EF900895A0E01C
:1004E000B0E0E5E7F2E00C945308FC01EA018081FA
:1004F000823008F43AC1DB019C91923008F432C199
:10050000843059F4943009F030C1918111968C9166
:100510001197981709F023C128C1943009F422C11A
:100520009230B1F4823009F020C1CA01AF0128E055
:10053000DA010D90AD01DC010D92CD012150C1F722
:10054000DB0111968C9111979181892389830CC1CC
:10055000823009F407C1C280D380DB0112966D900E
:100560007C90139724813581468157811496ED90B4
:10057000FD900D911C911797C601861997095C0192
:1005800097FF04C0AA24BB24A81AB90AB0E2AB168C
:10059000B1040CF062C0181619066CF53701480159
:1005A0000A2C04C096948794779467940A94D2F79F
:1005B00081E090E0A0E0B0E00A2C04C0880F991F11
:1005C000AA1FBB1F0A94D2F70197A109B1098E2176
:1005D0009F21A023B123EE24FF248701E3940097F9
:1005E000A105B10519F4EE24FF248701E628F728B8
:1005F000082919293EC00097E1F1CA0CDB1C39011A
:100600004A010A2C04C096948794779467940A94BC
:10061000D2F781E090E0A0E0B0E00A2C04C0880F9F
:10062000991FAA1FBB1F0A94D2F70197A109B1090C
:1006300082239323A423B52321E030E040E050E05F
:100640000097A105B10521F420E030E040E050E042
:1006500026293729482959290CC06C147D0424F413
:10066000EE24FF24870105C0630120E030E040E074
:1006700050E08181FB019181891709F445C08823ED
:1006800049F0D801C701821B930BA40BB50B9C0149
:10069000AD0104C02E193F09400B510B57FD04C09A
:1006A0001982DB82CA820BC081E08983DB82CA8225
:1006B00050954095309521953F4F4F4F5F4F2C837C
:1006C0003D834E835F830DC0880F991FAA1FBB1FF8
:1006D0008C839D83AE83BF838A819B8101979B839B
:1006E0008A838C819D81AE81BF819C01AD012150A7
:1006F0003040404050402F3FEFEF3E07EFEF4E07B6
:10070000EFE35E0708F30BC08983DB82CA822E0DFC
:100710003F1D401F511F2C833D834E835F8383E029
:1007200088832C813D814E815F8157FF1DC0DA0196
:10073000C90181709070A070B0705695479537953B
:100740002795822B932BA42BB52B8C839D83AE8373
:10075000BF838A819B8101969B838A8305C0E6E6DD
:10076000F0E003C0FB0101C0FE01CF01CDB7DEB751
:10077000EEE00C946F08A0E2B0E0E1ECF3E00C9442
:100780005B0869837A838B839C832D833E834F83AD
:10079000588789E0E82EF12CEC0EFD1ECE01019663
:1007A000B7010E9479078E010F5E1F4FCE0105969B
:1007B000B8010E947907C701B801AE01475E5F4FDB
:1007C0000E946F020E94A806A096E6E00C947708AB
:1007D000A0E2B0E0EEEEF3E00C945B0869837A836C
:1007E0008B839C832D833E834F8358878E01075FC5
:1007F0001F4FCE010196B8010E94790791E1E92EC1
:10080000F12CEC0EFD1ECE010596B7010E94790772
:100810008A8991E089278A8BC801B701AE01475EBA
:100820005F4F0E946F020E94A806A096E6E00C941B
:100830007708A0E2B0E0EFE1F4E00C944F086983A0
:100840007A838B839C832D833E834F835887CE018D
:100850000196BE01675F7F4F0E947907CE01059622
:10086000BE016F5E7F4F0E9479079985923078F0C4
:1008700089898230C0F0943019F4823041F4CEC0BE
:10088000843019F4923079F4C9C0923051F481E087
:100890002A859A89291709F480E08A87CE0109966A
:1008A000BFC0823051F481E02A859A89291709F462
:1008B00080E08A8BCE014196B3C06D847E848F84A4
:1008C0009888ED88FE880F89188DE0E2F0E080E0DE
:1008D00090E0A0E0B0E0AA24BB24650120E030E075
:1008E00040E050E0B3016170707061157105D9F09E
:1008F0002E0D3F1D401F511F15012601280E391EC8
:100900004A1E5B1E81E090E0A0E0B0E02E153F059E
:100910004007510720F080E090E0A0E0B0E0820DB9
:10092000931DA41DB51DAA0CBB1CCC1CDD1C17FF00
:1009300009C061E0262E312C412C512CA228B3286D
:10094000C428D528319749F0EE0CFF1C001F111F59
:100950009694879477946794C5CF6B897C89EB854F
:10096000FC856E0F7F1F6E5F7F4F7C8F6B8F61E00A
:10097000EA857A89E71709F460E06A8F6B8D7C8DD0
:1009800010C0FC01E170F070309729F05695479542
:10099000379527955068B695A795979587956F5F7A
:1009A0007F4FB7FDEECF0CC0880F991FAA1FBB1F4A
:1009B00057FD8160220F331F441F551F6150704047
:1009C0008030E0E09E07E0E0AE07E0E4BE0760F3C1
:1009D0006B8F7C8F6FE7E62EF12C012D112DE82215
:1009E000F9220A231B2360E4E616F1040105110530
:1009F00061F487FD0AC0211531054105510529F033
:100A0000805C9F4FAF4FBF4F80788D8F9E8FAF8F91
:100A1000B8A383E0898FCE01499602C086E690E0B4
:100A20000E94A806A096E2E10C946B08A8E1B0E051
:100A3000ECE1F5E00C94570869837A838B839C83FF
:100A40002D833E834F8358878E01075F1F4FCE0152
:100A50000196B8010E94790781E1E82EF12CEC0E95
:100A6000FD1ECE010596B7010E9479079985923047
:100A700008F484C08989823008F47CC02A853A89C8
:100A800023272A87943011F0923021F4981709F027
:100A90006DC072C0843039F41D861E861F86188A88
:100AA0001C861B866BC0823019F484E0898766C07F
:100AB0008B859C852B893C89821B930B9C878B871C
:100AC0002D853E854F855889ED88FE880F89188DC4
:100AD0002E153F054007510738F4220F331F441FDE
:100AE000551F01979C878B876FE170E0A12CB12C7B
:100AF000C12CA0E4DA2E80E090E0A0E0B0E02E155A
:100B00003F054007510740F08A299B29AC29BD29A0
:100B10002E193F09400B510BD694C794B794A79454
:100B2000220F331F441F551F6150704041F76FE77C
:100B3000E62EF12C012D112DE822F9220A231B2388
:100B400060E4E616F1040105110561F487FD0AC0B1
:100B5000211531054105510529F0805C9F4FAF4FAC
:100B6000BF4F80788D879E87AF87B88B8E01075FD8
:100B70001F4F04C0870102C006E610E0C8010E94B2
:100B8000A8066896EAE00C947308A8E1B0E0EBECE4
:100B9000F5E00C945B0869837A838B839C832D83B7
:100BA0003E834F8358878E01075F1F4FCE0101960A
:100BB000B8010E94790781E1E82EF12CEC0EFD1EB0
:100BC000CE010596B7010E9479078985823040F0F1
:100BD0008989823028F0C801B7010E94E20701C06C
:100BE0008FEF6896E6E00C947708A8E1B0E0EBEFB1
:100BF000F5E00C945B0869837A838B839C832D8357
:100C00003E834F8358878E01075F1F4FCE010196A9
:100C1000B8010E94790781E1E82EF12CEC0EFD1E4F
:100C2000CE010596B7010E9479078985823040F090
:100C30008989823028F0C801B7010E94E20701C00B
:100C40008FEF6896E6E00C947708A8E1B0E0EBE25D
:100C5000F6E00C945B0869837A838B839C832D83F5
:100C60003E834F8358878E01075F1F4FCE01019649
:100C7000B8010E94790781E1E82EF12CEC0EFD1EEF
:100C8000CE010596B7010E9479078985823040F030
:100C90008989823028F0C801B7010E94E20701C0AB
:100CA00081E06896E6E00C947708ACE0B0E0EBE514
:100CB000F6E00C945F0869837A838B839C83CE0172
:100CC0000196BE016B5F7F4F0E9479078D81823054
:100CD00081F1823070F1843021F48E81882371F1AA
:100CE0000AC02F81388537FD24C06E812F31310530
:100CF0003CF0662319F120E030E040E050E822C0EB
:100D00008EE190E0821B930B29853A854B855C85AB
:100D100004C056954795379527958A95D2F766234F
:100D200089F050954095309521953F4F4F4F5F4F3B
:100D300009C020E030E040E050E004C02FEF3FEF7A
:100D40004FEF5FE7B901CA012C96E2E00C947B08F3
:100D5000EF92FF920F931F93CF93DF93FC012481B7
:100D600035814681578161818081823020F44061E4
:100D7000EFEFF0E0A6C0843009F49DC0823009F4A2
:100D800094C0211531054105510509F491C0028037
:100D9000F381E02D8FEFE238F8070CF05CC0C2E879
:100DA000DFEFCE1BDF0BCA31D10574F579018A0163
:100DB0000C2E04C016950795F794E7940A94D2F781
:100DC00081E090E0A0E0B0E00C2E04C0880F991FF5
:100DD000AA1FBB1F0A94D2F70197A109B109822368
:100DE0009323A423B52321E030E040E050E00097B6
:100DF000A105B10521F420E030E040E050E02E29CB
:100E00003F29402B512B04C020E030E040E050E06F
:100E1000DA01C9018F779070A070B07080349105AD
:100E2000A105B10539F427FF09C0205C3F4F4F4FA2
:100E30005F4F04C0215C3F4F4F4F5F4FE1E0F0E058
:100E4000203080E0380780E0480780E4580728F524
:100E5000E0E0F0E022C0E038F1056CF5E158FF4F2A
:100E6000DA01C9018F779070A070B070803491055D
:100E7000A105B10539F427FF09C0205C3F4F4F4F52
:100E80005F4F04C0215C3F4F4F4F5F4F57FF05C07E
:100E90005695479537952795319687E0569547950E
:100EA000379527958A95D1F70CC0E0E0F0E005C0B2
:100EB000E0E0F0E006C0EFEFF0E020E030E040E0FE
:100EC00050E08E2F879588278795942F9F77679579
:100ED00066276795E695E22EA92FA82BFE2FF62B05
:100EE000622F732F8A2F9F2FCDB7DEB7E6E00C94C9
:100EF0007708DC01FB012C9111963C911197129619
:100F00008C911297482F4F7750E0982F991F99276F
:100F1000991F13966C911397862F880F892B90E059
:100F2000661F6627661F6183009739F52115310515
:100F30004105510511F482E029C082E89FEF9383B7
:100F4000828367E0220F331F441F551F6A95D1F734
:100F500083E0808309C0220F331F441F551F828105
:100F60009381019793838283203080E0380780E06B
:100F7000480780E4580778F320C08F3F910579F443
:100F8000211531054105510519F484E08083089548
:100F900044FF03C081E0808310C010820EC08F57D1
:100FA00090409383828383E0808387E0220F331F06
:100FB000441F551F8A95D1F7506424833583468397
:100FC00057830895FC01DB019081923008F449C0F9
:100FD0008C91823008F445C0943051F461818430A2
:100FE000B1F511962C91119730E0261B310941C0C3
:100FF000843021F0923041F48230B1F111968C911D
:1010000011978823A1F12DC06181823001F11196E1
:101010008C9111976817D9F42281338112968D91A2
:101020009C9113978217930794F028173907BCF007
:10103000248135814681578114968D919D910D9023
:10104000BC91A02D82179307A407B50718F4662357
:1010500041F00DC0281739074A075B0728F46623BB
:1010600031F021E030E005C020E030E002C02FEF99
:101070003FEFC9010895AA1BBB1B51E107C0AA1F7E
:10108000BB1FA617B70710F0A61BB70B881F991F29
:101090005A95A9F780959095BC01CD0108952F929E
:1010A0003F924F925F926F927F928F929F92AF92F8
:1010B000BF92CF92DF92EF92FF920F931F93CF9345
:1010C000DF93CDB7DEB7CA1BDB0B0FB6F894DEBFDC
:1010D0000FBECDBF09942A88398848885F846E8402
:1010E0007D848C849B84AA84B984C884DF80EE804C
:1010F000FD800C811B81AA81B981CE0FD11D0FB655
:10110000F894DEBF0FBECDBFED010895F894FFCF78
:00000001FF
